:100000000C9456010C947E010C947E010C947306A2
:100010000C9473060C9473060C947E010C947E0170
:100020000C947E010C947E010C947E010C947E0154
:100030000C947E010C947E010C947E010C947E0144
:100040000C9429060C947E010C94F7050C94D105B0
:100050000C947E010C947E010C947E010C947E0124
:100060000C947E010C947E01000000002400270007
:100070002A0000000008000201000003040700003D
:100080000000000000004446506C61796572204D0C
:10009000696E69206F6E6C696E652E00322E506C31
:1000A0006561736520696E73657274206D656D6F2F
:1000B000727920636172642100312E506C65617326
:1000C00065207265636865636B2074686520636F83
:1000D0006E6E656374696F6E2100556E61626C654A
:1000E00020746F20626567696E3A00496E697469B1
:1000F000616C697A696E67204446506C61796572FB
:10010000202E2E2E20284D61792074616B652033BE
:100110007E35207365636F6E647329004446526FA9
:10012000626F74204446506C61796572204D696E2F
:10013000692044656D6F004E6F204576656E7400D2
:10014000566F6C756D6520446F776E204576656ED1
:100150007400566F6C756D65205570204576656E20
:10016000740052657374617274204576656E740014
:100170004E657874204576656E74005061757365C0
:10018000204576656E7400506C6179204576656E09
:100190007400496E2041647665727469736500432A
:1001A000616E6E6F742046696E642046696C6500EE
:1001B00046696C6520496E646578204F7574206FC0
:1001C0006620426F756E6400436865636B205375EB
:1001D0006D204E6F74204D61746368004765742014
:1001E00057726F6E6720537461636B00536C656563
:1001F00070696E670043617264206E6F7420666F71
:10020000756E64004446506C617965724572726F18
:10021000723A0020506C61792046696E6973686596
:100220006421004E756D6265723A0043617264200C
:100230004F6E6C696E652100436172642052656D7A
:100240006F76656421004361726420496E73657244
:100250007465642100537461636B2057726F6E671D
:10026000210054696D65204F757421000000000065
:1002700023002600290000000000250028002B0094
:10028000040404040404040402020202020203033C
:100290000303030301020408102040800102040844
:1002A00010200102040810201907F20A11241FBEB1
:1002B000CFEFD8E0DEBFCDBF11E0A0E0B1E0E6EDCA
:1002C000F6E102C005900D92AC34B107D9F722E0F7
:1002D000ACE4B1E001C01D92AA38B207E1F711E029
:1002E000C5E5D1E004C02197FE010E94440BC4354E
:1002F000D107C9F70E94E2070C945E0B0C94000032
:10030000AF92BF92CF92DF92EF92FF920F931F9323
:10031000CF93DF936C017B018B01040F151FEB0161
:100320005E01AE18BF08C017D10759F06991D60118
:10033000ED91FC910190F081E02DC6010995892B8A
:1003400079F7C501DF91CF911F910F91FF90EF9049
:10035000DF90CF90BF90AF900895FC01538D448DF6
:10036000252F30E0842F90E0821B930B541710F060
:10037000CF96089501970895FC01918D828D98176D
:1003800061F0A28DAE0FBF2FB11D5D968C91928D45
:100390009F5F9F73928F90E008958FEF9FEF089576
:1003A000FC01918D828D981731F0828DE80FF11D3F
:1003B000858D90E008958FEF9FEF0895FC01918D5A
:1003C000228D892F90E0805C9F4F821B91098F7353
:1003D0009927089588EA91E00E94DE0121E0892BA7
:1003E00009F420E0822F089580E090E0892B29F025
:1003F0000E94EA0181110C9400000895FC01A48D73
:10040000A80FB92FB11DA35ABF4F2C91848D90E036
:1004100001968F739927848FA689B7892C93A08919
:10042000B1898C91837080648C93938D848D9813A3
:1004300006C00288F389E02D80818F7D8083089536
:10044000EF92FF920F931F93CF93DF93EC0181E024
:10045000888F9B8D8C8D98131AC0E889F9898081CB
:1004600085FF15C09FB7F894EE89FF896083E889FE
:10047000F98980818370806480839FBF81E090E0F0
:10048000DF91CF911F910F91FF90EF900895F62E7D
:100490000B8D10E00F5F1F4F0F731127E02E8C8D17
:1004A0008E110CC00FB607FCFACFE889F98980815C
:1004B00085FFF5CFCE010E94FE01F1CFEB8DEC0F51
:1004C000FD2FF11DE35AFF4FF0829FB7F8940B8F79
:1004D000EA89FB8980818062CFCF0F931F93CF93EE
:1004E000DF938C01D0E0C0E0F801EC0FFD1F6491B8
:1004F000662341F088EA91E00E942002892B11F0E6
:100500002196F2CFCE01DF91CF911F910F910895E7
:10051000CF93DF93EC01888D8823B9F0AA89BB893A
:10052000E889F9898C9185FD03C0808186FD0DC025
:100530000FB607FCF7CF8C9185FFF2CF808185FF46
:10054000EDCFCE010E94FE01E9CFDF91CF9108955A
:10055000833081F028F4813099F08230A9F0089539
:100560008730A9F08830C9F08430B1F480918000E0
:100570008F7D03C0809180008F77809380000895E5
:1005800084B58F7784BD089584B58F7DFBCF80912E
:10059000B0008F778093B00008958091B0008F7D78
:1005A000F9CFCF93DF93282F30E0F901EE58FF4FBA
:1005B0008491F901EC56FD4FD491F901E058FD4FBB
:1005C000C491CC23A1F081110E94A802EC2FF0E08D
:1005D000EE0FFF1FE459FD4FA591B491EC91ED236F
:1005E00081E090E009F480E0DF91CF91089580E010
:1005F00090E0FACFCF93DF9390E0FC01EC56FD4FF3
:10060000249180589D4FFC0184918823C9F090E08B
:10061000880F991FFC01E859FF4FA591B491FC0187
:10062000EA58FD4FC591D49161110DC09FB7F89460
:100630008C91209582238C938881282328839FBFC7
:10064000DF91CF910895623051F49FB7F8943C91B7
:10065000822F809583238C93E8812E2BEFCF8FB749
:10066000F894EC912E2B2C938FBFEACF3FB7F894E0
:100670008091910190919201A0919301B091940188
:1006800026B5A89B05C02F3F19F00196A11DB11DED
:100690003FBFBA2FA92F982F8827BC01CD01620F29
:1006A000711D811D911D42E0660F771F881F991FE4
:1006B0004A95D1F708958F929F92AF92BF92CF92B1
:1006C000DF92EF92FF926B017C010E9436034B0197
:1006D0005C01C114D104E104F104B9F00E943603B5
:1006E000681979098A099B09683E7340810591055B
:1006F00080F321E0C21AD108E108F10888EE880EE3
:1007000083E0981EA11CB11CE4CFFF90EF90DF9016
:10071000CF90BF90AF909F908F9008952FB7F8948F
:1007200060918D0170918E0180918F019091900167
:100730002FBF08950F931F93809145029091460219
:10074000DC01ED91FC910084F185E02D0995892B68
:1007500009F4D7C060E070E0CB010E945B032091F8
:1007600063028091450290914602DC01ED91FC917B
:100770000284F385E02D21110BC0099580934F026F
:100780008E37D1F6809163028F5F80936302D4CF5E
:10079000099590916302E92FF0E0EB5BFD4F8287B2
:1007A0009230B9F09930D9F09130A9F48F3F99F097
:1007B0001092630281E080936502109268021092A9
:1007C00067028093690210926A0280E01F910F9184
:1007D0000895863069F79F5F90936302ADCF8F3E97
:1007E00039F72091510280915002280F3327331F8F
:1007F000E0915202C9018E0F911D20915302280FE2
:10080000392F311D4091540250E0240F351F809143
:10081000550290E06091560270E0762F6627F091C5
:1008200057026F0F711D280F391F3195219531091E
:100830006217730709F0BCCF10926302E13419F418
:1008400010926A022FC0E0936602542F4427840F4F
:10085000951F9093680280936702EA53E63108F08F
:1008600046C0F0E0EA5CFB4F0C94440B63046B045D
:1008700075044C04750455047304770475047504F9
:10088000750475047504750475047504770475049E
:10089000750475047504750485E08093650281E034
:1008A000809369028091690291CF80FF02C089E044
:1008B000F4CF81FF02C084E0F0CF83709927892BA9
:1008C00089F38AE0EACF80FF02C087E0E6CF81FFAC
:1008D000E9CF82E0E2CF80FF02C088E0DECF81FF77
:1008E000E1CF83E0DACF86E0D8CF8BE0D6CF81E0CE
:1008F00080936502109268021092670280936902E9
:100900009FCF80916A02882369F20E948E03009132
:100910004702109148022091490230914A02601B1F
:10092000710B820B930B00914B0210914C022091A2
:100930004D0230914E02601771078207930708F449
:10094000B1CF109263021092650210926802109269
:10095000670281E036CF80935C02272F30E07093EE
:100960005E0260935F0240915B0290915A02490FD0
:100970005527551F840F952F911D40915D02840FBF
:10098000911D820F931F680F792F711D71956195CD
:1009900071097093600260936102442361F0809159
:1009A0006A02882341F060E070E0CB010E945B03A3
:1009B0000E949A03F4CF8091450290914602DC0197
:1009C000ED91FC910280F381E02D4AE050E069E571
:1009D00072E009950E948E0360934702709348026B
:1009E0008093490290934A0280915D0291E08111C7
:1009F00001C090E090936A02811106C06AE070E045
:100A000080E090E00C945B03089520919701309171
:100A100098012817390771F49091950180919601FA
:100A2000981741F0E0919501F0E0E45BFE4F808182
:100A300090E008958FEF9FEF08950895EF92FF9251
:100A40000F931F93CF93DF93DC015C96ED90FC90A6
:100A50005D97E114F10479F481E090E013969C93A2
:100A60008E93129790E080E0DF91CF911F910F91CC
:100A7000FF90EF9008955196ED91FC91529750960A
:100A80008C915097982F90950FB75E962C915E970A
:100A9000122F127021FD6095F8942081112319F115
:100AA000282B2083E7012197F1F728E0462F50E01B
:100AB000308160FF1AC0382B3083E7012197F1F7AE
:100AC000BA0175956795215089F7112381F08081CE
:100AD000892380830FBF5C968D919C910197F1F7DC
:100AE00081E090E0C1CF2923DCCF3923E5CF90818D
:100AF000892BEFCF20919701309198012817390762
:100B000071F4809196012091950190E0805C9F4F57
:100B1000821B910960E470E00E940E0B089590E042
:100B200080E00895209197013091980128173907A6
:100B3000B9F49091950180919601981789F0E09110
:100B40009501F0E0E45BFE4F80812091950130E05B
:100B50002F5F3F4F2F7333272093950190E0089527
:100B60008FEF9FEF089590E080E00895FC010190E1
:100B70000020E9F73197AF01481B590BBC0188EA07
:100B800091E00C948001CF93DF930E946D02EC0101
:100B90008EE291E00E94B6058C0F9D1FDF91CF91F0
:100BA00008951F920F920FB60F9211242F933F9327
:100BB0004F935F936F937F938F939F93AF93BF9365
:100BC000EF93FF9388EA91E00E94FE01FF91EF917D
:100BD000BF91AF919F918F917F916F915F914F9155
:100BE0003F912F910F900FBE0F901F9018951F925D
:100BF0000F920FB60F9211242F938F939F93EF9321
:100C0000FF93E091B801F091B9018081E091BE01BC
:100C1000F091BF0182FD1BC090818091C1018F5F67
:100C20008F732091C201821741F0E091C101F0E081
:100C3000E855FE4F958F8093C101FF91EF919F91F1
:100C40008F912F910F900FBE0F901F90189580815C
:100C5000F4CF1F920F920FB60F9211242F933F9350
:100C60008F939F93AF93BF9380918D0190918E014D
:100C7000A0918F01B091900130918C0123E0230F5E
:100C80002D3758F50196A11DB11D20938C0180933D
:100C90008D0190938E01A0938F01B093900180916C
:100CA000910190919201A0919301B09194010196CC
:100CB000A11DB11D8093910190939201A093930186
:100CC000B0939401BF91AF919F918F913F912F91DC
:100CD0000F900FBE0F901F90189526E8230F0296D5
:100CE000A11DB11DD2CF1F920F920FB60F921124EA
:100CF0002F933F934F935F936F937F938F939F9324
:100D0000AF93BF93EF93FF93E0919701F091980118
:100D1000309749F0A685B7858585968D91FF14C0DB
:100D20009C918923A1F4FF91EF91BF91AF919F9185
:100D30008F917F916F915F914F913F912F910F9084
:100D40000FBE0F901F9018959C91892361F7A3897E
:100D5000B4899C918589809589238C93868997890C
:100D60000197F1F7608D718DA685B785558538E0BF
:100D700020E0CB010197F1F7822F90E095958795C0
:100D8000282F4C91452309F02068315091F7868D2A
:100D900081FD20958091960190E001968F739927AF
:100DA00030919501381799F0A0919601B0E0A45BBD
:100DB000BE4F2C9380939601828D938D0197F1F70E
:100DC000A389B4898C919589892B8C93ACCF868D1E
:100DD0008160868FF1CF1F93CF93DF93282F30E070
:100DE000F901EE58FF4F8491F901EC56FD4FD49173
:100DF000F901E058FD4FC491CC23A9F0162F8111C1
:100E00000E94A802EC2FF0E0EE0FFF1FEA58FD4F02
:100E1000A591B4918FB7F894EC91111108C0D095B9
:100E2000DE23DC938FBFDF91CF911F910895DE2BDE
:100E3000F8CF1092AB011092AA0188EE93E0A0E0E7
:100E4000B0E08093AC019093AD01A093AE01B0935C
:100E5000AF012EE031E03093A9012093A80125ECE9
:100E600030E03093B5012093B40124EC30E03093AE
:100E7000B7012093B60120EC30E03093B901209304
:100E8000B80121EC30E03093BB012093BA0122EC91
:100E900030E03093BD012093BC0126EC30E030936C
:100EA000BF012093BE011092C1011092C2011092A5
:100EB000C3011092C40110926E0210926D028093D1
:100EC0006F0290937002A0937102B093720280E25D
:100ED00091E090936C0280936B02109282021092C8
:100EE0008102109284021092830210928602109264
:100EF00085021092880210928702609189026E7FAB
:100F00006D7F609389026695617081E0682786E055
:100F10000E94EB0661E086E00E94FA02EAE9F2E054
:100F2000E491E0937B02E6E8F2E0E491F0E0EE0F7A
:100F3000FF1FEA58FD4F8591949190937D02809315
:100F40007C0260E087E00E94FA028091890281FDC4
:100F500004C061E087E00E94EB0687E0809377029F
:100F6000EBE9F2E0E491E0937802E7E8F2E0E49163
:100F7000F0E0EE0FFF1FE459FD4F8591949190939F
:100F80007A028093790284EF91E0A0E0B0E0809350
:100F90004B0290934C02A0934D02B0934E028AE014
:100FA000E0E0F1E0A9E5B2E001900D928A95E1F769
:100FB0001092630282E080936402109269021092A0
:100FC0006A020895CF93DF93CDB7DEB7A1970FB62E
:100FD000F894DEBF0FBECDBF789484B5826084BD27
:100FE00084B5816084BD85B5826085BD85B581602D
:100FF00085BD80916E00816080936E0010928100AB
:101000008091810082608093810080918100816065
:101010008093810080918000816080938000809126
:10102000B10084608093B1008091B00081608093B2
:10103000B00080917A00846080937A0080917A0079
:10104000826080937A0080917A00816080937A0038
:1010500080917A00806880937A001092C10062E0EB
:1010600082E00E94FA0262E083E00E94FA0262E0FB
:1010700084E00E94FA0262E085E00E94FA02109287
:1010800086021092850210928402109283021092BE
:101090008202109281028DE991E090938802809300
:1010A000870290917702963108F047C02DEB30E02F
:1010B00030938202209381022BE931E03093840245
:1010C000209383022CE231E0309386022093850244
:1010D0002091680084E0983048F031E09E3008F4B8
:1010E00030E081E001C0880F3A95EAF7822B8093C7
:1010F00068002DE630E0983050F02BE630E09E306E
:1011000030F02CE630E0963110F030E020E0309303
:101110007F0220937E02292F30E0983008F0A4C08F
:1011200081E001C0880F9A95EAF780938002809150
:101130008702909188020197F1F780918502909142
:101140008602892B49F1E0919701F091980122E004
:10115000EB36F20709F1309739F0A389B4899C91F5
:101160008589809589238C93809189028E7F8093D5
:10117000890210929601109295018BE692E090936D
:10118000980180939701E0917E02F0917F02808127
:1011900090918002892B8083E091B801F091B90190
:1011A00082E08083E091B401F091B5011082E0917A
:1011B000B601F091B70180E180831092C001E09107
:1011C000BC01F091BD0186E08083E091BA01F0910D
:1011D000BB01808180618083E091BA01F091BB0105
:1011E000808188608083E091BA01F091BB018081A9
:1011F00080688083E091BA01F091BB0180818F7D8E
:1012000080838EE291E00E94B6058CE191E00E941D
:10121000C3058BEE90E00E94C3058BE692E09093AD
:1012200046028093450281E080935D0270E060E0B9
:101230008CE00E94AB040E948E036B017C010E9433
:101240009A0381111EC00E948E036C197D098E09BC
:101250009F09613D77408105910598F460E070E059
:10126000CB010E945B03EBCF9E3040F42850310944
:1012700081E001C0880F2A95EAF757CF2E50310937
:10128000F7CF68EC70E080E090E00E945B03109282
:101290006902809165028430A1F0893091F08AED75
:1012A00090E00E94C30589EB90E00E94C3058CE9A1
:1012B00090E00E94C30560E070E0CB010E945B03F8
:1012C000FACF86E890E00E94C3056EE170E086E008
:1012D0000E94AB048AE0482E512C612C712C90E0C6
:1012E000A92E90E0B92E11E08091A00181110CC0CF
:1012F0000E948E0360939C0170939D0180939E01D8
:1013000090939F011093A00184E00E94D102892B49
:1013100029F480919A01816080939A0185E00E946E
:10132000D102892B29F480919A01826080939A01DD
:1013300083E00E94D102892B29F480919A01846074
:1013400080939A0182E00E94D102892B29F4809136
:101350009A01886080939A010E948E03C0909C013C
:10136000D0909D01E0909E01F0909F016C197D0945
:101370008E099F096D3271408105910508F43FC0C7
:101380000E948E0360939C0170939D0180939E0147
:1013900090939F0180919B01811115C010939B0137
:1013A00080919A0180FF53C080919901811145C0BD
:1013B00087E891E00E94C3051093990170E060E016
:1013C0008DE00E94AB0480919B018823C1F084E0F2
:1013D0000E94D102892B99F085E00E94D102892BCD
:1013E00071F083E00E94D102892B49F082E00E94D3
:1013F000D102892B21F010929B0110929A010E9438
:101400009A03882309F46DC010926902C0906702A4
:10141000D0906802E0916502E93008F062C0F0E027
:10142000EC5EF54F0C94440B580A5D0A600A630A9F
:10143000660A800AC80A690A7D0A8BE791E00E9461
:10144000C3051092990170E060E08EE0BACF81FF91
:1014500008C080E791E00E94C30570E060E081E091
:10146000B0CF982F987082FF12C0992341F082E686
:1014700091E00E94C30561E070E083E0A2CF82E5C5
:1014800091E00E94C30570E060E084E09ACF992368
:1014900041F080E491E00E94C30570E060E085E0E7
:1014A00090CF87E391E00E94C30510929B018BCF00
:1014B00082E692E00E94C30514C085E592E0FACF6F
:1014C00086E492E0F7CF88E392E0F4CF8BE292E0FB
:1014D000F1CF81E391E00E94B6058EE291E00E9497
:1014E000B605A114B10409F4FFCE0E94EA018823D5
:1014F00009F4FACE0E940000F7CE8FE391E0EBCF23
:1015000083E292E00E946D020D2C000CEE08FF08B1
:10151000F7FE28C06DE288EA91E00E9420022227AF
:101520003327A9012C193D094E095F0919A2CE01E3
:1015300081967C01CA01B901A30192010E94220B8C
:10154000605DF70162937F01211531054105510569
:1015500089F7E114F10419F0C7010E94B60583E18F
:1015600092E0A8CFA701960119A2CE0181967C0135
:10157000CA01B901A30192010E94220B605DF7012B
:1015800062937F01211531054105510589F7E1CFAE
:1015900084E092E00E946D02F6013197E730F10598
:1015A00008F09FCFEA52F54F0C94440BDD0AE00A95
:1015B000E30AE60AE90AEC0AEF0A85EF91E07ACF3E
:1015C0008CEE91E077CF8CED91E074CF88EC91E0D8
:1015D00071CF80EB91E06ECF8FE991E06BCF82E924
:1015E00091E068CF80E291E090936C0280936B026F
:1015F00080919701909198018B56924071F4E091FF
:101600007E02F0917F0290818091800280958923F3
:1016100080831092980110929701089597FB072EEE
:1016200016F4009407D077FD09D00E944A0B07FCFE
:1016300005D03EF4909581959F4F089570956195E2
:101640007F4F0895A1E21A2EAA1BBB1BFD010DC0FE
:10165000AA1FBB1FEE1FFF1FA217B307E407F50762
:1016600020F0A21BB30BE40BF50B661F771F881F3E
:10167000991F1A9469F760957095809590959B01D4
:10168000AC01BD01CF010895EE0FFF1F0590F4914D
:10169000E02D0994AA1BBB1B51E107C0AA1FBB1F69
:1016A000A617B70710F0A61BB70B881F991F5A95EE
:1016B000A9F780959095BC01CD01089511E0C5E58D
:1016C000D1E004C0FE010E94440B2196C635D1072B
:0616D000C9F7F894FFCFFA
:1016D6007EFF06000100000000EF0000000020026F
:1016E6008001AD018802DE01BC01D00100000000CE
:1016F6001E058001B3051D057A05920505050D0A2F
:101706000055534220496E73657274656421005515
:0C17160053422052656D6F76656421001F
:107800000C94343C0C94513C0C94513C0C94513CE1
:107810000C94513C0C94513C0C94513C0C94513CB4
:107820000C94513C0C94513C0C94513C0C94513CA4
:107830000C94513C0C94513C0C94513C0C94513C94
:107840000C94513C0C94513C0C94513C0C94513C84
:107850000C94513C0C94513C0C94513C0C94513C74
:107860000C94513C0C94513C11241FBECFEFD8E036
:10787000DEBFCDBF11E0A0E0B1E0ECE9FFE702C060
:1078800005900D92A230B107D9F712E0A2E0B1E065
:1078900001C01D92AD30B107E1F70E942D3D0C945F
:1078A000CC3F0C94003C982F959595959595959582
:1078B000905D8F708A307CF0282F295A8091C0000B
:1078C00085FFFCCF9093C6008091C00085FFFCCF60
:1078D0002093C6000895282F205DF0CF982F809127
:1078E000C00085FFFCCF9093C6000895EF92FF92F1
:1078F0000F931F93EE24FF2487018091C00087FD22
:1079000017C00894E11CF11C011D111D81E4E8164B
:1079100082E4F8068FE0080780E0180770F3E09132
:107920000401F091050109958091C00087FFE9CF1E
:107930008091C6001F910F91FF90EF9008950E94D3
:10794000763C982F8091C00085FFFCCF9093C600B5
:1079500091362CF490330CF09053892F089597555D
:10796000892F08951F930E949F3C182F0E949F3CCF
:107970001295107F810F1F9108951F93182F882350
:1079800021F00E94763C1150E1F71F9108951F935A
:10799000182F0E94763C803249F0809103018F5F5E
:1079A000809303018530C1F01F9108958091C0003C
:1079B00085FFFCCF84E18093C6008091C00085FFE5
:1079C000FCCF1093C6008091C00085FFFCCF80E102
:1079D0008093C6001F910895E0910401F091050184
:1079E00009951F9108950E94763C803241F0809164
:1079F00003018F5F80930301853081F008958091AA
:107A0000C00085FFFCCF84E18093C6008091C00058
:107A100085FFFCCF80E18093C6000895E0910401CA
:107A2000F09105010995089540E951E08823A1F0FE
:107A30002D9A28EE33E0FA013197F1F721503040CA
:107A4000D1F72D9828EE33E0FA013197F1F7215064
:107A50003040D1F7815061F708953F924F925F9285
:107A60006F927F928F929F92AF92BF92CF92DF924E
:107A7000EF92FF920F931F93CF93DF93000080E16B
:107A80008093C4001092C50088E18093C10086E015
:107A90008093C2005098589A259A81E00E94143D24
:107AA00024E1F22E9EE1E92E85E9D82E0FE0C02ECA
:107AB00010E1B12EAA24A394B1E49B2EA6E58A2E50
:107AC000F2E57F2EE0E26E2E79E4572E63E5462E36
:107AD00050E5352E0E94763C8033B1F18133B9F107
:107AE000803409F46FC0813409F476C0823409F41B
:107AF00085C0853409F488C0803531F1823521F1A3
:107B0000813511F1853509F485C0863509F48DC0BC
:107B1000843609F496C0843709F403C1853709F423
:107B200072C1863709F466C0809103018F5F80932C
:107B30000301853079F6E0910401F0910501099582
:107B40000E94763C803351F60E94F33CC3CF0E94E2
:107B5000763C803249F78091C00085FFFCCFF092DF
:107B6000C6008091C00085FFFCCF9092C600809136
:107B7000C00085FFFCCF8092C6008091C00085FFC9
:107B8000FCCF7092C6008091C00085FFFCCF609250
:107B9000C6008091C00085FFFCCF5092C600809146
:107BA000C00085FFFCCF4092C6008091C00085FFD9
:107BB000FCCF3092C6008091C00085FFFCCFB09210
:107BC000C60088CF0E94763C863808F4BDCF0E945C
:107BD000763C0E94F33C7ECF0E94763C803809F4CC
:107BE0009CC0813809F40BC1823809F43CC1883942
:107BF00009F48FC080E00E94C73C6CCF84E10E94F2
:107C0000BD3C0E94F33C66CF85E00E94BD3C0E94D3
:107C1000F33C60CF0E94763C809306010E94763C44
:107C2000809307010E94F33C55CF0E94763C80333D
:107C300009F41DC183E00E94BD3C80E00E94C73C66
:107C400049CF0E94763C809309020E94763C809343
:107C5000080280910C028E7F80930C020E94763C79
:107C6000853409F415C18091080290910902892B8D
:107C700089F000E010E00E94763CF801E85FFE4FDA
:107C800080830F5F1F4F80910802909109020817AF
:107C9000190788F30E94763C803209F045CF809125
:107CA0000C0280FF01C16091060170910701660F0F
:107CB000771F7093070160930601A0910802B091AD
:107CC00009021097C9F0E8E0F1E09B01AD014E0F09
:107CD0005F1FF999FECF32BD21BD819180BDFA9A17
:107CE000F99A2F5F3F4FE417F50799F76A0F7B1F4B
:107CF00070930701609306018091C00085FFFCCF5F
:107D0000F092C6008091C00085FFFCCFB092C60003
:107D1000E1CE83E00E94C73CDDCE82E00E94C73CFA
:107D2000D9CE0E94763C809309020E94763C8093D3
:107D300008028091060190910701880F991F909386
:107D40000701809306010E94763C853409F4A6C0A1
:107D500080910C028E7F80930C020E94763C8032D0
:107D600009F0B8CE8091C00085FFFCCFF092C6002C
:107D7000609108027091090261157105B9F140E046
:107D800050E080910C02A82FA170B82FB27011C0E2
:107D9000BB2309F45CC0E0910601F0910701319624
:107DA000F0930701E09306014F5F5F4F46175707B7
:107DB000E8F4AA2369F3F999FECF209106013091E6
:107DC000070132BD21BDF89A90B58091C00085FFB2
:107DD000FCCF9093C6002F5F3F4F30930701209355
:107DE00006014F5F5F4F4617570718F38091C00099
:107DF00085FDE5CE8091C00085FFF8CFE0CE81E023
:107E00000E94C73C67CE0E94763C803209F08CCE3F
:107E10008091C00085FFFCCFF092C6008091C00029
:107E200085FFFCCFE092C6008091C00085FFFCCFAB
:107E3000D092C6008091C00085FFFCCFC092C600E2
:107E40008091C00085FFFCCFB092C60043CEE09188
:107E50000601F091070194918091C00085FFFCCF4D
:107E60009093C6009CCF80E10E94C73C33CE0E9415
:107E7000763C0E94763C182F0E94763C112309F430
:107E800083C0113009F484C08FE00E94C73C22CE29
:107E900080910C02816080930C02E5CE80910C02EF
:107EA000816080930C0259CF809107018823880F4D
:107EB000880B8A2180930B02809106019091070123
:107EC000880F991F90930701809306018091080203
:107ED00080FF09C080910802909109020196909359
:107EE000090280930802F894F999FECF1127E091D6
:107EF0000601F0910701C8E0D1E08091080290915D
:107F00000902103091F40091570001700130D9F34B
:107F100003E000935700E89500915700017001308D
:107F2000D9F301E100935700E89509901990009169
:107F3000570001700130D9F301E000935700E89534
:107F40001395103498F011270091570001700130FB
:107F5000D9F305E000935700E895009157000170B0
:107F60000130D9F301E100935700E895329602976A
:107F700009F0C7CF103011F00296E5CF112480919F
:107F8000C00085FFB9CEBCCE8EE10E94C73CA2CD19
:0C7F900085E90E94C73C9ECDF894FFCF0D
:027F9C00800063
:040000030000780081
:00000001FF
